{
  "contractName": "Publication",
  "abi": [
    {
      "constant": true,
      "inputs": [
        {
          "name": "",
          "type": "uint256"
        }
      ],
      "name": "publications",
      "outputs": [
        {
          "name": "pubNum",
          "type": "uint128"
        },
        {
          "name": "name",
          "type": "string"
        },
        {
          "name": "data",
          "type": "string"
        },
        {
          "name": "date",
          "type": "uint256"
        }
      ],
      "payable": false,
      "stateMutability": "view",
      "type": "function"
    },
    {
      "anonymous": false,
      "inputs": [
        {
          "indexed": false,
          "name": "_name",
          "type": "string"
        },
        {
          "indexed": false,
          "name": "_addr",
          "type": "address"
        }
      ],
      "name": "PublicationAdded",
      "type": "event"
    },
    {
      "constant": false,
      "inputs": [
        {
          "name": "_name",
          "type": "string"
        }
      ],
      "name": "setUsername",
      "outputs": [],
      "payable": false,
      "stateMutability": "nonpayable",
      "type": "function"
    },
    {
      "constant": false,
      "inputs": [
        {
          "name": "_name",
          "type": "string"
        },
        {
          "name": "_data",
          "type": "string"
        }
      ],
      "name": "addPublication",
      "outputs": [],
      "payable": false,
      "stateMutability": "nonpayable",
      "type": "function"
    },
    {
      "constant": true,
      "inputs": [
        {
          "name": "_username",
          "type": "string"
        }
      ],
      "name": "getPublications",
      "outputs": [
        {
          "name": "",
          "type": "uint128[]"
        }
      ],
      "payable": false,
      "stateMutability": "view",
      "type": "function"
    },
    {
      "constant": true,
      "inputs": [
        {
          "name": "_publicationNumber",
          "type": "uint128"
        }
      ],
      "name": "getPublication",
      "outputs": [
        {
          "name": "",
          "type": "string"
        },
        {
          "name": "",
          "type": "string"
        },
        {
          "name": "",
          "type": "uint256"
        }
      ],
      "payable": false,
      "stateMutability": "view",
      "type": "function"
    },
    {
      "constant": true,
      "inputs": [
        {
          "name": "_publicationNumber",
          "type": "uint128"
        }
      ],
      "name": "getData",
      "outputs": [
        {
          "name": "",
          "type": "string"
        }
      ],
      "payable": false,
      "stateMutability": "view",
      "type": "function"
    },
    {
      "constant": true,
      "inputs": [],
      "name": "getPs",
      "outputs": [
        {
          "name": "",
          "type": "string"
        }
      ],
      "payable": false,
      "stateMutability": "view",
      "type": "function"
    }
  ],
  "bytecode": "0x6060604052341561000f57600080fd5b6115878061001e6000396000f300606060405260043610610083576000357c0100000000000000000000000000000000000000000000000000000000900463ffffffff16806310ee88cf146100885780631fd5bbab1461012857806325b347c41461029c5780633167fd3e1461032a578063aafacd731461044b578063b9d12406146104fd578063ed59313a146105ab575b600080fd5b341561009357600080fd5b610126600480803590602001908201803590602001908080601f0160208091040260200160405190810160405280939291908181526020018383808284378201915050505050509190803590602001908201803590602001908080601f01602080910402602001604051908101604052809392919081815260200183838082843782019150505050505091905050610608565b005b341561013357600080fd5b61014960048080359060200190919050506108b1565b60405180856fffffffffffffffffffffffffffffffff166fffffffffffffffffffffffffffffffff16815260200180602001806020018481526020018381038352868181546001816001161561010002031660029004815260200191508054600181600116156101000203166002900480156102065780601f106101db57610100808354040283529160200191610206565b820191906000526020600020905b8154815290600101906020018083116101e957829003601f168201915b50508381038252858181546001816001161561010002031660029004815260200191508054600181600116156101000203166002900480156102895780601f1061025e57610100808354040283529160200191610289565b820191906000526020600020905b81548152906001019060200180831161026c57829003601f168201915b5050965050505050505060405180910390f35b34156102a757600080fd5b6102af61090a565b6040518080602001828103825283818151815260200191508051906020019080838360005b838110156102ef5780820151818401526020810190506102d4565b50505050905090810190601f16801561031c5780820380516001836020036101000a031916815260200191505b509250505060405180910390f35b341561033557600080fd5b61035d60048080356fffffffffffffffffffffffffffffffff169060200190919050506109e6565b604051808060200180602001848152602001838103835286818151815260200191508051906020019080838360005b838110156103a757808201518184015260208101905061038c565b50505050905090810190601f1680156103d45780820380516001836020036101000a031916815260200191505b50838103825285818151815260200191508051906020019080838360005b8381101561040d5780820151818401526020810190506103f2565b50505050905090810190601f16801561043a5780820380516001836020036101000a031916815260200191505b509550505050505060405180910390f35b341561045657600080fd5b6104a6600480803590602001908201803590602001908080601f01602080910402602001604051908101604052809392919081815260200183838082843782019150505050505091905050610c87565b6040518080602001828103825283818151815260200191508051906020019060200280838360005b838110156104e95780820151818401526020810190506104ce565b505050509050019250505060405180910390f35b341561050857600080fd5b61053060048080356fffffffffffffffffffffffffffffffff16906020019091905050610f18565b6040518080602001828103825283818151815260200191508051906020019080838360005b83811015610570578082015181840152602081019050610555565b50505050905090810190601f16801561059d5780820380516001836020036101000a031916815260200191505b509250505060405180910390f35b34156105b657600080fd5b610606600480803590602001908201803590602001908080601f016020809104026020016040519081016040528093929190818152602001838380828437820191505050505050919050506110a5565b005b33600360006005805490506fffffffffffffffffffffffffffffffff166fffffffffffffffffffffffffffffffff16815260200190815260200160002060006101000a81548173ffffffffffffffffffffffffffffffffffffffff021916908373ffffffffffffffffffffffffffffffffffffffff16021790555060058054806001018281610697919061132a565b916000526020600020906004020160006080604051908101604052806005805490506fffffffffffffffffffffffffffffffff16815260200186815260200185815260200142815250909190915060008201518160000160006101000a8154816fffffffffffffffffffffffffffffffff02191690836fffffffffffffffffffffffffffffffff160217905550602082015181600101908051906020019061074092919061135c565b50604082015181600201908051906020019061075d92919061135c565b5060608201518160030155505050600460003373ffffffffffffffffffffffffffffffffffffffff1673ffffffffffffffffffffffffffffffffffffffff168152602001908152602001600020600081819054906101000a900461ffff168092919060010191906101000a81548161ffff021916908361ffff160217905550507f04b75e3dcfa4ce571d898f9fdcddeeda641bcf31c0c27e005dca5bac8a1bfec5823360405180806020018373ffffffffffffffffffffffffffffffffffffffff1673ffffffffffffffffffffffffffffffffffffffff168152602001828103825284818151815260200191508051906020019080838360005b83811015610872578082015181840152602081019050610857565b50505050905090810190601f16801561089f5780820380516001836020036101000a031916815260200191505b50935050505060405180910390a15050565b6005818154811015156108c057fe5b90600052602060002090600402016000915090508060000160009054906101000a90046fffffffffffffffffffffffffffffffff1690806001019080600201908060030154905084565b6109126113dc565b60016005805490501015151561092757600080fd5b6005600081548110151561093757fe5b90600052602060002090600402016001018054600181600116156101000203166002900480601f0160208091040260200160405190810160405280929190818152602001828054600181600116156101000203166002900480156109dc5780601f106109b1576101008083540402835291602001916109dc565b820191906000526020600020905b8154815290600101906020018083116109bf57829003601f168201915b5050505050905090565b6109ee6113dc565b6109f66113dc565b600080600090505b600580549050816fffffffffffffffffffffffffffffffff161015610c7e57846fffffffffffffffffffffffffffffffff166005826fffffffffffffffffffffffffffffffff16815481101515610a5157fe5b906000526020600020906004020160000160009054906101000a90046fffffffffffffffffffffffffffffffff166fffffffffffffffffffffffffffffffff161415610c71576005816fffffffffffffffffffffffffffffffff16815481101515610ab857fe5b90600052602060002090600402016001016005826fffffffffffffffffffffffffffffffff16815481101515610aea57fe5b90600052602060002090600402016002016005836fffffffffffffffffffffffffffffffff16815481101515610b1c57fe5b906000526020600020906004020160030154828054600181600116156101000203166002900480601f016020809104026020016040519081016040528092919081815260200182805460018160011615610100020316600290048015610bc35780601f10610b9857610100808354040283529160200191610bc3565b820191906000526020600020905b815481529060010190602001808311610ba657829003601f168201915b50505050509250818054600181600116156101000203166002900480601f016020809104026020016040519081016040528092919081815260200182805460018160011615610100020316600290048015610c5f5780601f10610c3457610100808354040283529160200191610c5f565b820191906000526020600020905b815481529060010190602001808311610c4257829003601f168201915b50505050509150935093509350610c7f565b80806001019150506109fe565b5b509193909250565b610c8f6113f0565b610c976113f0565b600080600460003373ffffffffffffffffffffffffffffffffffffffff1673ffffffffffffffffffffffffffffffffffffffff16815260200190815260200160002060009054906101000a900461ffff1661ffff16604051805910610cf95750595b9080825280602002602001820160405250925060009150600090505b600580549050811015610f0d576002856040518082805190602001908083835b602083101515610d5a5780518252602082019150602081019050602083039250610d35565b6001836020036101000a038019825116818451168082178552505050505050905001915050908152602001604051809103902060009054906101000a900473ffffffffffffffffffffffffffffffffffffffff1673ffffffffffffffffffffffffffffffffffffffff1660036000600584815481101515610dd757fe5b906000526020600020906004020160000160009054906101000a90046fffffffffffffffffffffffffffffffff166fffffffffffffffffffffffffffffffff166fffffffffffffffffffffffffffffffff16815260200190815260200160002060009054906101000a900473ffffffffffffffffffffffffffffffffffffffff1673ffffffffffffffffffffffffffffffffffffffff161415610f0057600581815481101515610e8357fe5b906000526020600020906004020160000160009054906101000a90046fffffffffffffffffffffffffffffffff16838361ffff16815181101515610ec357fe5b906020019060200201906fffffffffffffffffffffffffffffffff1690816fffffffffffffffffffffffffffffffff168152505081806001019250505b8080600101915050610d15565b829350505050919050565b610f206113dc565b60008090505b600580549050816fffffffffffffffffffffffffffffffff16101561109e57826fffffffffffffffffffffffffffffffff166005826fffffffffffffffffffffffffffffffff16815481101515610f7957fe5b906000526020600020906004020160000160009054906101000a90046fffffffffffffffffffffffffffffffff166fffffffffffffffffffffffffffffffff161415611091576005816fffffffffffffffffffffffffffffffff16815481101515610fe057fe5b90600052602060002090600402016002018054600181600116156101000203166002900480601f0160208091040260200160405190810160405280929190818152602001828054600181600116156101000203166002900480156110855780601f1061105a57610100808354040283529160200191611085565b820191906000526020600020905b81548152906001019060200180831161106857829003601f168201915b5050505050915061109f565b8080600101915050610f26565b5b50919050565b600073ffffffffffffffffffffffffffffffffffffffff166002826040518082805190602001908083835b6020831015156110f557805182526020820191506020810190506020830392506110d0565b6001836020036101000a038019825116818451168082178552505050505050905001915050908152602001604051809103902060009054906101000a900473ffffffffffffffffffffffffffffffffffffffff1673ffffffffffffffffffffffffffffffffffffffff161415156112125760006002826040518082805190602001908083835b6020831015156111a0578051825260208201915060208101905060208303925061117b565b6001836020036101000a038019825116818451168082178552505050505050905001915050908152602001604051809103902060006101000a81548173ffffffffffffffffffffffffffffffffffffffff021916908373ffffffffffffffffffffffffffffffffffffffff1602179055505b8060009080519060200190611228929190611404565b50336002826040518082805190602001908083835b602083101515611262578051825260208201915060208101905060208303925061123d565b6001836020036101000a038019825116818451168082178552505050505050905001915050908152602001604051809103902060006101000a81548173ffffffffffffffffffffffffffffffffffffffff021916908373ffffffffffffffffffffffffffffffffffffffff16021790555080600160003373ffffffffffffffffffffffffffffffffffffffff1673ffffffffffffffffffffffffffffffffffffffff1681526020019081526020016000209080519060200190611326929190611404565b5050565b815481835581811511611357576004028160040283600052602060002091820191016113569190611484565b5b505050565b828054600181600116156101000203166002900490600052602060002090601f016020900481019282601f1061139d57805160ff19168380011785556113cb565b828001600101855582156113cb579182015b828111156113ca5782518255916020019190600101906113af565b5b5090506113d891906114ee565b5090565b602060405190810160405280600081525090565b602060405190810160405280600081525090565b828054600181600116156101000203166002900490600052602060002090601f016020900481019282601f1061144557805160ff1916838001178555611473565b82800160010185558215611473579182015b82811115611472578251825591602001919060010190611457565b5b50905061148091906114ee565b5090565b6114eb91905b808211156114e757600080820160006101000a8154906fffffffffffffffffffffffffffffffff02191690556001820160006114c69190611513565b6002820160006114d69190611513565b60038201600090555060040161148a565b5090565b90565b61151091905b8082111561150c5760008160009055506001016114f4565b5090565b90565b50805460018160011615610100020316600290046000825580601f106115395750611558565b601f01602090049060005260206000209081019061155791906114ee565b5b505600a165627a7a723058207af73a2eb67aa867a2216e34858b98802cdee1d6f155bd5526c184992eb9688f0029",
  "source": "pragma solidity ^0.4.18;\n\n// import \"../node_modules/zeppelin-solidity/contracts/ownership/Ownable.sol\";\n\n//contract Publication is Ownable{\ncontract Publication {\n\t// uint storedData;\n\t// string name;\n\n\n\t// function set(uint _x, string _name) public {\n\t// \twhile(true) {\n\t// \t\tstoredData = 1;\n\t// \t}\n\t//   storedData = _x;\n\t//   name = _name;\n\t// }\n\n\t// function getData() public view returns (uint) {\n\t//   return storedData;\n\t// }\n\n\t// function getName() public view returns (string) {\n\t//   return name;\n\t// }\n\n\tstring username;\t// username\n\n\tstruct Pub{\n\t\tuint128 pubNum;\t// publication id\n\t\tstring name;\t// name of publication\n\t\tstring data;\t// data / publication itself - hash\n\t\tuint date;\t\t// date of publication\n\t}\n\n\tevent PublicationAdded(string _name, address _addr);\n\n\tmapping (address => string) user;\t\t// address -> username\n\tmapping (string => address) userAddress;// username ->\t\n\tmapping (uint128 => address) author;\t// pub num -> author\n\tmapping (address => uint16) numberOfPublications;\t// address -> number of pubs\n\t\n\tPub[] public publications; \t\t\t\t// list of publications\n\t\n\tfunction setUsername(string _name) public\n\t// onlyOwner\n\t{\n\t\tif (userAddress[_name] != address(0)) {\n\t\t\tuserAddress[_name] = address(0);\n\t\t}\n\t\tusername = _name;\n\t\tuserAddress[_name] = msg.sender;\n\t\tuser[msg.sender] = _name;\n\t}\n\n\tfunction addPublication(string _name, string _data) public {\n\t\tauthor[uint128(publications.length)] = msg.sender;\n\t\tpublications.push(Pub(uint128(publications.length),_name, _data, now));\n\t\tnumberOfPublications[msg.sender]++;\n\t\tPublicationAdded(_name, msg.sender);\n\t}\n\n\tfunction _getOwnPublications() private view \n\t// onlyOwner \n\treturns(string[]) {\n\t\tstring[] memory pubNames = new string[](numberOfPublications[msg.sender]);\n\t\tuint16 c = 0;\n\t\tfor (uint i = 0; i<publications.length; i++) {\n\t\t\tif(author[publications[i].pubNum] == msg.sender) {\n\t\t\t\tpubNames[c] = publications[i].name;\n\t\t\t\tc++;\n\t\t\t}\n\t\t}\n\t}\n\n\tfunction getPublications(string _username) public view returns(uint128[]){\n\t\tuint128[] memory pubNums = new uint128[](numberOfPublications[msg.sender]);\n\t\tuint16 c = 0;\n\t\tfor (uint i = 0; i<publications.length; i++) {\n\t\t\tif(author[publications[i].pubNum] == userAddress[_username]) {\n\t\t\t\tpubNums[c] = publications[i].pubNum;\n\t\t\t\tc++;\n\t\t\t}\n\t\t}\n\t\treturn pubNums;\n\t}\n\n\tfunction getPublication (uint128 _publicationNumber) public view returns(string,string,uint) {\n\t\tfor (uint128 i = 0; i<publications.length; i++) {\n\t\t\tif(publications[i].pubNum == _publicationNumber) {\n\t\t\t\treturn (publications[i].name, publications[i].data, publications[i].date);\n\t\t\t}\n\t\t}\n\t}\n\n\tfunction getData (uint128 _publicationNumber) public view returns(string) {\n\t\tfor (uint128 i = 0; i<publications.length; i++) {\n\t\t\tif(publications[i].pubNum == _publicationNumber) {\n\t\t\t\treturn publications[i].data;\n\t\t\t}\n\t\t}\n\t}\n\n\tfunction getPs () public view returns (string) {\n\t\trequire (publications.length >= 1);\n\t\treturn publications[0].name;\n\t}\n}\n\n// Publication.deployed().then(function(instance){return instance.addPublication(\"69420\",\"IIIIIID-DYLLU\");});\n// Publication.deployed().then(function(instance){return instance.getData.call();}).then(function(value){return value.toNumber()});\n// Publication.deployed().then(function(instance){return instance.getData.call();}).then(function(value){return value.toNumber()});\n\n// Publication.deployed().then(function(instance){return instance.getPublications.call();}).then(function(value){return value.toNumber()});\n\n// Publication.deployed().then(function(instance){return instance.getPublications(\"Dylon\");}).then(function(value){return value[0].toNumber()})\n\n// Publication.deployed().then(function(instance){return instance.addPublication(\"NameOfPub\",\"Data/Hash\");});\n// Publication.deployed().then(function(instance){return instance.getPublications(\"Dylon\");}).then(function(value){return value[2].toNumber()})\n\n\n// name, string (article) -> genHash() -> addPublication(name, hash)\n// pubID -> getData() -> display [no need to show hash]\n// references",
  "sourcePath": "/home/juckso/Documents/uom/blockchain hackathon/PubliChain/contracts/Publication.sol",
  "compiler": {
    "name": "solc",
    "version": "0.4.19+commit.c4cbbb05.Emscripten.clang"
  },
  "schemaVersion": "1.0.1",
  "updatedAt": "2018-02-25T08:18:31.618Z"
}