{
  "contractName": "Publication",
  "abi": [
    {
      "constant": true,
      "inputs": [
        {
          "name": "",
          "type": "uint256"
        }
      ],
      "name": "publications",
      "outputs": [
        {
          "name": "pubNum",
          "type": "uint128"
        },
        {
          "name": "name",
          "type": "string"
        },
        {
          "name": "data",
          "type": "string"
        },
        {
          "name": "date",
          "type": "uint256"
        }
      ],
      "payable": false,
      "stateMutability": "view",
      "type": "function"
    },
    {
      "anonymous": false,
      "inputs": [
        {
          "indexed": false,
          "name": "_name",
          "type": "string"
        },
        {
          "indexed": false,
          "name": "_addr",
          "type": "address"
        }
      ],
      "name": "PublicationAdded",
      "type": "event"
    },
    {
      "constant": false,
      "inputs": [
        {
          "name": "_name",
          "type": "string"
        }
      ],
      "name": "setUsername",
      "outputs": [],
      "payable": false,
      "stateMutability": "nonpayable",
      "type": "function"
    },
    {
      "constant": false,
      "inputs": [
        {
          "name": "_name",
          "type": "string"
        },
        {
          "name": "_data",
          "type": "string"
        }
      ],
      "name": "addPublication",
      "outputs": [],
      "payable": false,
      "stateMutability": "nonpayable",
      "type": "function"
    },
    {
      "constant": true,
      "inputs": [
        {
          "name": "_username",
          "type": "string"
        }
      ],
      "name": "getPublications",
      "outputs": [
        {
          "name": "",
          "type": "uint128[]"
        }
      ],
      "payable": false,
      "stateMutability": "view",
      "type": "function"
    },
    {
      "constant": true,
      "inputs": [
        {
          "name": "_publicationNumber",
          "type": "uint128"
        }
      ],
      "name": "getPublication",
      "outputs": [
        {
          "name": "",
          "type": "string"
        },
        {
          "name": "",
          "type": "string"
        },
        {
          "name": "",
          "type": "uint256"
        }
      ],
      "payable": false,
      "stateMutability": "view",
      "type": "function"
    },
    {
      "constant": true,
      "inputs": [],
      "name": "getPs",
      "outputs": [
        {
          "name": "",
          "type": "string"
        }
      ],
      "payable": false,
      "stateMutability": "view",
      "type": "function"
    }
  ],
  "bytecode": "0x6060604052341561000f57600080fd5b6113418061001e6000396000f300606060405260043610610078576000357c0100000000000000000000000000000000000000000000000000000000900463ffffffff16806310ee88cf1461007d5780631fd5bbab1461011d57806325b347c4146102915780633167fd3e1461031f578063aafacd7314610440578063ed59313a146104f2575b600080fd5b341561008857600080fd5b61011b600480803590602001908201803590602001908080601f0160208091040260200160405190810160405280939291908181526020018383808284378201915050505050509190803590602001908201803590602001908080601f0160208091040260200160405190810160405280939291908181526020018383808284378201915050505050509190505061054f565b005b341561012857600080fd5b61013e60048080359060200190919050506107f8565b60405180856fffffffffffffffffffffffffffffffff166fffffffffffffffffffffffffffffffff16815260200180602001806020018481526020018381038352868181546001816001161561010002031660029004815260200191508054600181600116156101000203166002900480156101fb5780601f106101d0576101008083540402835291602001916101fb565b820191906000526020600020905b8154815290600101906020018083116101de57829003601f168201915b505083810382528581815460018160011615610100020316600290048152602001915080546001816001161561010002031660029004801561027e5780601f106102535761010080835404028352916020019161027e565b820191906000526020600020905b81548152906001019060200180831161026157829003601f168201915b5050965050505050505060405180910390f35b341561029c57600080fd5b6102a4610851565b6040518080602001828103825283818151815260200191508051906020019080838360005b838110156102e45780820151818401526020810190506102c9565b50505050905090810190601f1680156103115780820380516001836020036101000a031916815260200191505b509250505060405180910390f35b341561032a57600080fd5b61035260048080356fffffffffffffffffffffffffffffffff1690602001909190505061092d565b604051808060200180602001848152602001838103835286818151815260200191508051906020019080838360005b8381101561039c578082015181840152602081019050610381565b50505050905090810190601f1680156103c95780820380516001836020036101000a031916815260200191505b50838103825285818151815260200191508051906020019080838360005b838110156104025780820151818401526020810190506103e7565b50505050905090810190601f16801561042f5780820380516001836020036101000a031916815260200191505b509550505050505060405180910390f35b341561044b57600080fd5b61049b600480803590602001908201803590602001908080601f01602080910402602001604051908101604052809392919081815260200183838082843782019150505050505091905050610bce565b6040518080602001828103825283818151815260200191508051906020019060200280838360005b838110156104de5780820151818401526020810190506104c3565b505050509050019250505060405180910390f35b34156104fd57600080fd5b61054d600480803590602001908201803590602001908080601f01602080910402602001604051908101604052809392919081815260200183838082843782019150505050505091905050610e5f565b005b33600360006005805490506fffffffffffffffffffffffffffffffff166fffffffffffffffffffffffffffffffff16815260200190815260200160002060006101000a81548173ffffffffffffffffffffffffffffffffffffffff021916908373ffffffffffffffffffffffffffffffffffffffff160217905550600580548060010182816105de91906110e4565b916000526020600020906004020160006080604051908101604052806005805490506fffffffffffffffffffffffffffffffff16815260200186815260200185815260200142815250909190915060008201518160000160006101000a8154816fffffffffffffffffffffffffffffffff02191690836fffffffffffffffffffffffffffffffff1602179055506020820151816001019080519060200190610687929190611116565b5060408201518160020190805190602001906106a4929190611116565b5060608201518160030155505050600460003373ffffffffffffffffffffffffffffffffffffffff1673ffffffffffffffffffffffffffffffffffffffff168152602001908152602001600020600081819054906101000a900461ffff168092919060010191906101000a81548161ffff021916908361ffff160217905550507f04b75e3dcfa4ce571d898f9fdcddeeda641bcf31c0c27e005dca5bac8a1bfec5823360405180806020018373ffffffffffffffffffffffffffffffffffffffff1673ffffffffffffffffffffffffffffffffffffffff168152602001828103825284818151815260200191508051906020019080838360005b838110156107b957808201518184015260208101905061079e565b50505050905090810190601f1680156107e65780820380516001836020036101000a031916815260200191505b50935050505060405180910390a15050565b60058181548110151561080757fe5b90600052602060002090600402016000915090508060000160009054906101000a90046fffffffffffffffffffffffffffffffff1690806001019080600201908060030154905084565b610859611196565b60016005805490501015151561086e57600080fd5b6005600081548110151561087e57fe5b90600052602060002090600402016001018054600181600116156101000203166002900480601f0160208091040260200160405190810160405280929190818152602001828054600181600116156101000203166002900480156109235780601f106108f857610100808354040283529160200191610923565b820191906000526020600020905b81548152906001019060200180831161090657829003601f168201915b5050505050905090565b610935611196565b61093d611196565b600080600090505b600580549050816fffffffffffffffffffffffffffffffff161015610bc557846fffffffffffffffffffffffffffffffff166005826fffffffffffffffffffffffffffffffff1681548110151561099857fe5b906000526020600020906004020160000160009054906101000a90046fffffffffffffffffffffffffffffffff166fffffffffffffffffffffffffffffffff161415610bb8576005816fffffffffffffffffffffffffffffffff168154811015156109ff57fe5b90600052602060002090600402016001016005826fffffffffffffffffffffffffffffffff16815481101515610a3157fe5b90600052602060002090600402016002016005836fffffffffffffffffffffffffffffffff16815481101515610a6357fe5b906000526020600020906004020160030154828054600181600116156101000203166002900480601f016020809104026020016040519081016040528092919081815260200182805460018160011615610100020316600290048015610b0a5780601f10610adf57610100808354040283529160200191610b0a565b820191906000526020600020905b815481529060010190602001808311610aed57829003601f168201915b50505050509250818054600181600116156101000203166002900480601f016020809104026020016040519081016040528092919081815260200182805460018160011615610100020316600290048015610ba65780601f10610b7b57610100808354040283529160200191610ba6565b820191906000526020600020905b815481529060010190602001808311610b8957829003601f168201915b50505050509150935093509350610bc6565b8080600101915050610945565b5b509193909250565b610bd66111aa565b610bde6111aa565b600080600460003373ffffffffffffffffffffffffffffffffffffffff1673ffffffffffffffffffffffffffffffffffffffff16815260200190815260200160002060009054906101000a900461ffff1661ffff16604051805910610c405750595b9080825280602002602001820160405250925060009150600090505b600580549050811015610e54576002856040518082805190602001908083835b602083101515610ca15780518252602082019150602081019050602083039250610c7c565b6001836020036101000a038019825116818451168082178552505050505050905001915050908152602001604051809103902060009054906101000a900473ffffffffffffffffffffffffffffffffffffffff1673ffffffffffffffffffffffffffffffffffffffff1660036000600584815481101515610d1e57fe5b906000526020600020906004020160000160009054906101000a90046fffffffffffffffffffffffffffffffff166fffffffffffffffffffffffffffffffff166fffffffffffffffffffffffffffffffff16815260200190815260200160002060009054906101000a900473ffffffffffffffffffffffffffffffffffffffff1673ffffffffffffffffffffffffffffffffffffffff161415610e4757600581815481101515610dca57fe5b906000526020600020906004020160000160009054906101000a90046fffffffffffffffffffffffffffffffff16838361ffff16815181101515610e0a57fe5b906020019060200201906fffffffffffffffffffffffffffffffff1690816fffffffffffffffffffffffffffffffff168152505081806001019250505b8080600101915050610c5c565b829350505050919050565b600073ffffffffffffffffffffffffffffffffffffffff166002826040518082805190602001908083835b602083101515610eaf5780518252602082019150602081019050602083039250610e8a565b6001836020036101000a038019825116818451168082178552505050505050905001915050908152602001604051809103902060009054906101000a900473ffffffffffffffffffffffffffffffffffffffff1673ffffffffffffffffffffffffffffffffffffffff16141515610fcc5760006002826040518082805190602001908083835b602083101515610f5a5780518252602082019150602081019050602083039250610f35565b6001836020036101000a038019825116818451168082178552505050505050905001915050908152602001604051809103902060006101000a81548173ffffffffffffffffffffffffffffffffffffffff021916908373ffffffffffffffffffffffffffffffffffffffff1602179055505b8060009080519060200190610fe29291906111be565b50336002826040518082805190602001908083835b60208310151561101c5780518252602082019150602081019050602083039250610ff7565b6001836020036101000a038019825116818451168082178552505050505050905001915050908152602001604051809103902060006101000a81548173ffffffffffffffffffffffffffffffffffffffff021916908373ffffffffffffffffffffffffffffffffffffffff16021790555080600160003373ffffffffffffffffffffffffffffffffffffffff1673ffffffffffffffffffffffffffffffffffffffff16815260200190815260200160002090805190602001906110e09291906111be565b5050565b81548183558181151161111157600402816004028360005260206000209182019101611110919061123e565b5b505050565b828054600181600116156101000203166002900490600052602060002090601f016020900481019282601f1061115757805160ff1916838001178555611185565b82800160010185558215611185579182015b82811115611184578251825591602001919060010190611169565b5b50905061119291906112a8565b5090565b602060405190810160405280600081525090565b602060405190810160405280600081525090565b828054600181600116156101000203166002900490600052602060002090601f016020900481019282601f106111ff57805160ff191683800117855561122d565b8280016001018555821561122d579182015b8281111561122c578251825591602001919060010190611211565b5b50905061123a91906112a8565b5090565b6112a591905b808211156112a157600080820160006101000a8154906fffffffffffffffffffffffffffffffff021916905560018201600061128091906112cd565b60028201600061129091906112cd565b600382016000905550600401611244565b5090565b90565b6112ca91905b808211156112c65760008160009055506001016112ae565b5090565b90565b50805460018160011615610100020316600290046000825580601f106112f35750611312565b601f01602090049060005260206000209081019061131191906112a8565b5b505600a165627a7a723058203049604fbf0f22fe9c1c4cf7f466c5d090cc05c45ee700702275ca7ee663163f0029",
  "source": "pragma solidity ^0.4.18;\n\n// import \"../node_modules/zeppelin-solidity/contracts/ownership/Ownable.sol\";\n\n//contract Publication is Ownable{\ncontract Publication {\n\t// uint storedData;\n\t// string name;\n\n\n\t// function set(uint _x, string _name) public {\n\t// \twhile(true) {\n\t// \t\tstoredData = 1;\n\t// \t}\n\t//   storedData = _x;\n\t//   name = _name;\n\t// }\n\n\t// function getData() public view returns (uint) {\n\t//   return storedData;\n\t// }\n\n\t// function getName() public view returns (string) {\n\t//   return name;\n\t// }\n\n\tstring username;\t// username\n\n\tstruct Pub{\n\t\tuint128 pubNum;\t// publication id\n\t\tstring name;\t// name of publication\n\t\tstring data;\t// data / publication itself\n\t\tuint date;\t\t// date of publication\n\t}\n\n\tevent PublicationAdded(string _name, address _addr);\n\n\tmapping (address => string) user;\t\t// address -> username\n\tmapping (string => address) userAddress;// username ->\t\n\tmapping (uint128 => address) author;\t// pub num -> author\n\tmapping (address => uint16) numberOfPublications;\t// address -> number of pubs\n\t\n\tPub[] public publications; \t\t\t\t// list of publications\n\t\n\tfunction setUsername(string _name) public\n\t// onlyOwner\n\t{\n\t\tif (userAddress[_name] != address(0)) {\n\t\t\tuserAddress[_name] = address(0);\n\t\t}\n\t\tusername = _name;\n\t\tuserAddress[_name] = msg.sender;\n\t\tuser[msg.sender] = _name;\n\t}\n\n\tfunction addPublication(string _name, string _data) public {\n\t\tauthor[uint128(publications.length)] = msg.sender;\n\t\tpublications.push(Pub(uint128(publications.length),_name, _data, now));\n\t\tnumberOfPublications[msg.sender]++;\n\t\tPublicationAdded(_name, msg.sender);\n\t}\n\n\tfunction _getOwnPublications() private view \n\t// onlyOwner \n\treturns(string[]) {\n\t\tstring[] memory pubNames = new string[](numberOfPublications[msg.sender]);\n\t\tuint16 c = 0;\n\t\tfor (uint i = 0; i<publications.length; i++) {\n\t\t\tif(author[publications[i].pubNum] == msg.sender) {\n\t\t\t\tpubNames[c] = publications[i].name;\n\t\t\t\tc++;\n\t\t\t}\n\t\t}\n\t}\n\n\tfunction getPublications(string _username) public view returns(uint128[]){\n\t\tuint128[] memory pubNums = new uint128[](numberOfPublications[msg.sender]);\n\t\tuint16 c = 0;\n\t\tfor (uint i = 0; i<publications.length; i++) {\n\t\t\tif(author[publications[i].pubNum] == userAddress[_username]) {\n\t\t\t\tpubNums[c] = publications[i].pubNum;\n\t\t\t\tc++;\n\t\t\t}\n\t\t}\n\t\treturn pubNums;\n\t}\n\n\tfunction getPublication (uint128 _publicationNumber) public view returns(string,string,uint) {\n\t\tfor (uint128 i = 0; i<publications.length; i++) {\n\t\t\tif(publications[i].pubNum == _publicationNumber) {\n\t\t\t\treturn (publications[i].name, publications[i].data, publications[i].date);\n\t\t\t}\n\t\t}\n\t}\n\n\tfunction getPs () public view returns (string) {\n\t\trequire (publications.length >= 1);\n\t\treturn publications[0].name;\n\t}\n\n}\n\n// Publication.deployed().then(function(instance){return instance._addPublication(\"69420\",\"IIIIIID-DYLLU\");});\n// Publication.deployed().then(function(instance){return instance.getData.call();}).then(function(value){return value.toNumber()});\n// Publication.deployed().then(function(instance){return instance.getData.call();}).then(function(value){return value.toNumber()});\n\n//Publication.deployed().then(function(instance){return instance.getPublications.call();}).then(function(value){return value.toNumber()});",
  "sourcePath": "/home/kaspy/Desktop/PubliChain/contracts/Publication.sol",
  "compiler": {
    "name": "solc",
    "version": "0.4.19+commit.c4cbbb05.Emscripten.clang"
  },
  "schemaVersion": "1.0.1",
  "updatedAt": "2018-02-25T02:33:25.864Z"
}