{
  "contractName": "Publication",
  "abi": [
    {
      "constant": false,
      "inputs": [
        {
          "name": "_x",
          "type": "uint256"
        },
        {
          "name": "_name",
          "type": "string"
        }
      ],
      "name": "set",
      "outputs": [],
      "payable": false,
      "stateMutability": "nonpayable",
      "type": "function"
    },
    {
      "constant": true,
      "inputs": [],
      "name": "getData",
      "outputs": [
        {
          "name": "",
          "type": "uint256"
        }
      ],
      "payable": false,
      "stateMutability": "view",
      "type": "function"
    },
    {
      "constant": true,
      "inputs": [],
      "name": "getName",
      "outputs": [
        {
          "name": "",
          "type": "string"
        }
      ],
      "payable": false,
      "stateMutability": "view",
      "type": "function"
    }
  ],
  "bytecode": "0x6060604052341561000f57600080fd5b6103468061001e6000396000f300606060405260043610610057576000357c0100000000000000000000000000000000000000000000000000000000900463ffffffff16806317d7de7c1461005c5780633bc5de30146100ea5780636437197714610113575b600080fd5b341561006757600080fd5b61006f610179565b6040518080602001828103825283818151815260200191508051906020019080838360005b838110156100af578082015181840152602081019050610094565b50505050905090810190601f1680156100dc5780820380516001836020036101000a031916815260200191505b509250505060405180910390f35b34156100f557600080fd5b6100fd610221565b6040518082815260200191505060405180910390f35b341561011e57600080fd5b610177600480803590602001909190803590602001908201803590602001908080601f0160208091040260200160405190810160405280939291908181526020018383808284378201915050505050509190505061022a565b005b610181610261565b60018054600181600116156101000203166002900480601f0160208091040260200160405190810160405280929190818152602001828054600181600116156101000203166002900480156102175780601f106101ec57610100808354040283529160200191610217565b820191906000526020600020905b8154815290600101906020018083116101fa57829003601f168201915b5050505050905090565b60008054905090565b5b60011561023f57600160008190555061022b565b81600081905550806001908051906020019061025c929190610275565b505050565b602060405190810160405280600081525090565b828054600181600116156101000203166002900490600052602060002090601f016020900481019282601f106102b657805160ff19168380011785556102e4565b828001600101855582156102e4579182015b828111156102e35782518255916020019190600101906102c8565b5b5090506102f191906102f5565b5090565b61031791905b808211156103135760008160009055506001016102fb565b5090565b905600a165627a7a72305820c66cebf914d216783fa4798a2f2a22f37048b825e7590f1e0588155d4cd6636b0029",
  "source": "pragma solidity ^0.4.18;\n\ncontract Publication {\n  uint storedData;\n  string name;\n\n  function set(uint _x, string _name) public {\n  \twhile(true) {\n  \t\tstoredData = 1;\n  \t}\n    storedData = _x;\n    name = _name;\n  }\n\n  function getData() public view returns (uint) {\n    return storedData;\n  }\n\n  function getName() public view returns (string) {\n    return name;\n  }\n}\n\n// Publication.deployed().then(function(instance){return instance.set(69420,\"IIIIIID-DYLLU\");});\n// Publication.deployed().then(function(instance){return instance.getData.call();}).then(function(value){return value.toNumber()});\n// Publication.deployed().then(function(instance){return instance.getData.call();}).then(function(value){return value.toNumber()});",
  "sourcePath": "/home/kaspy/Desktop/Final/contracts/Publication.sol",
  "compiler": {
    "name": "solc",
    "version": "0.4.19+commit.c4cbbb05.Emscripten.clang"
  },
  "schemaVersion": "1.0.1",
  "updatedAt": "2018-02-24T15:56:58.189Z"
}