{
  "contractName": "Publication",
  "abi": [
    {
      "constant": true,
      "inputs": [
        {
          "name": "",
          "type": "uint256"
        }
      ],
      "name": "publications",
      "outputs": [
        {
          "name": "pubNum",
          "type": "uint128"
        },
        {
          "name": "name",
          "type": "string"
        },
        {
          "name": "data",
          "type": "string"
        },
        {
          "name": "date",
          "type": "uint256"
        }
      ],
      "payable": false,
      "stateMutability": "view",
      "type": "function"
    },
    {
      "anonymous": false,
      "inputs": [
        {
          "indexed": false,
          "name": "_name",
          "type": "string"
        },
        {
          "indexed": false,
          "name": "_addr",
          "type": "address"
        }
      ],
      "name": "PublicationAdded",
      "type": "event"
    },
    {
      "constant": false,
      "inputs": [
        {
          "name": "_name",
          "type": "string"
        }
      ],
      "name": "setUsername",
      "outputs": [],
      "payable": false,
      "stateMutability": "nonpayable",
      "type": "function"
    },
    {
      "constant": true,
      "inputs": [],
      "name": "getUsername",
      "outputs": [
        {
          "name": "",
          "type": "string"
        }
      ],
      "payable": false,
      "stateMutability": "view",
      "type": "function"
    },
    {
      "constant": false,
      "inputs": [
        {
          "name": "_name",
          "type": "string"
        },
        {
          "name": "_data",
          "type": "string"
        }
      ],
      "name": "addPublication",
      "outputs": [],
      "payable": false,
      "stateMutability": "nonpayable",
      "type": "function"
    },
    {
      "constant": true,
      "inputs": [
        {
          "name": "_addr",
          "type": "address"
        }
      ],
      "name": "getPublications",
      "outputs": [
        {
          "name": "",
          "type": "uint128[]"
        }
      ],
      "payable": false,
      "stateMutability": "view",
      "type": "function"
    },
    {
      "constant": true,
      "inputs": [
        {
          "name": "_username",
          "type": "string"
        }
      ],
      "name": "getPublicationsByUsername",
      "outputs": [
        {
          "name": "",
          "type": "uint128[]"
        }
      ],
      "payable": false,
      "stateMutability": "view",
      "type": "function"
    },
    {
      "constant": true,
      "inputs": [],
      "name": "getTopTen",
      "outputs": [
        {
          "name": "",
          "type": "uint128[]"
        }
      ],
      "payable": false,
      "stateMutability": "view",
      "type": "function"
    },
    {
      "constant": true,
      "inputs": [
        {
          "name": "_publicationNumber",
          "type": "uint128"
        }
      ],
      "name": "getPublication",
      "outputs": [
        {
          "name": "",
          "type": "string"
        },
        {
          "name": "",
          "type": "string"
        },
        {
          "name": "",
          "type": "uint256"
        }
      ],
      "payable": false,
      "stateMutability": "view",
      "type": "function"
    },
    {
      "constant": true,
      "inputs": [
        {
          "name": "_publicationNumber",
          "type": "uint128"
        }
      ],
      "name": "getData",
      "outputs": [
        {
          "name": "",
          "type": "string"
        }
      ],
      "payable": false,
      "stateMutability": "view",
      "type": "function"
    },
    {
      "constant": true,
      "inputs": [],
      "name": "getPs",
      "outputs": [
        {
          "name": "",
          "type": "string"
        }
      ],
      "payable": false,
      "stateMutability": "view",
      "type": "function"
    }
  ],
  "bytecode": "0x6060604052341561000f57600080fd5b6119008061001e6000396000f3006060604052600436106100a4576000357c0100000000000000000000000000000000000000000000000000000000900463ffffffff16806308204780146100a957806310ee88cf146101375780631fd5bbab146101d757806325b347c41461034b5780633167fd3e146103d9578063681f3e6d146104fa578063b278fa4b14610588578063b9d12406146105f2578063d855af21146106a0578063ed59313a14610752575b600080fd5b34156100b457600080fd5b6100e0600480803573ffffffffffffffffffffffffffffffffffffffff169060200190919050506107af565b6040518080602001828103825283818151815260200191508051906020019060200280838360005b83811015610123578082015181840152602081019050610108565b505050509050019250505060405180910390f35b341561014257600080fd5b6101d5600480803590602001908201803590602001908080601f0160208091040260200160405190810160405280939291908181526020018383808284378201915050505050509190803590602001908201803590602001908080601f016020809104026020016040519081016040528093929190818152602001838380828437820191505050505050919050506109b5565b005b34156101e257600080fd5b6101f86004808035906020019091905050610c5e565b60405180856fffffffffffffffffffffffffffffffff166fffffffffffffffffffffffffffffffff16815260200180602001806020018481526020018381038352868181546001816001161561010002031660029004815260200191508054600181600116156101000203166002900480156102b55780601f1061028a576101008083540402835291602001916102b5565b820191906000526020600020905b81548152906001019060200180831161029857829003601f168201915b50508381038252858181546001816001161561010002031660029004815260200191508054600181600116156101000203166002900480156103385780601f1061030d57610100808354040283529160200191610338565b820191906000526020600020905b81548152906001019060200180831161031b57829003601f168201915b5050965050505050505060405180910390f35b341561035657600080fd5b61035e610cb7565b6040518080602001828103825283818151815260200191508051906020019080838360005b8381101561039e578082015181840152602081019050610383565b50505050905090810190601f1680156103cb5780820380516001836020036101000a031916815260200191505b509250505060405180910390f35b34156103e457600080fd5b61040c60048080356fffffffffffffffffffffffffffffffff16906020019091905050610d93565b604051808060200180602001848152602001838103835286818151815260200191508051906020019080838360005b8381101561045657808201518184015260208101905061043b565b50505050905090810190601f1680156104835780820380516001836020036101000a031916815260200191505b50838103825285818151815260200191508051906020019080838360005b838110156104bc5780820151818401526020810190506104a1565b50505050905090810190601f1680156104e95780820380516001836020036101000a031916815260200191505b509550505050505060405180910390f35b341561050557600080fd5b61050d611034565b6040518080602001828103825283818151815260200191508051906020019080838360005b8381101561054d578082015181840152602081019050610532565b50505050905090810190601f16801561057a5780820380516001836020036101000a031916815260200191505b509250505060405180910390f35b341561059357600080fd5b61059b611118565b6040518080602001828103825283818151815260200191508051906020019060200280838360005b838110156105de5780820151818401526020810190506105c3565b505050509050019250505060405180910390f35b34156105fd57600080fd5b61062560048080356fffffffffffffffffffffffffffffffff16906020019091905050611206565b6040518080602001828103825283818151815260200191508051906020019080838360005b8381101561066557808201518184015260208101905061064a565b50505050905090810190601f1680156106925780820380516001836020036101000a031916815260200191505b509250505060405180910390f35b34156106ab57600080fd5b6106fb600480803590602001908201803590602001908080601f01602080910402602001604051908101604052809392919081815260200183838082843782019150505050505091905050611393565b6040518080602001828103825283818151815260200191508051906020019060200280838360005b8381101561073e578082015181840152602081019050610723565b505050509050019250505060405180910390f35b341561075d57600080fd5b6107ad600480803590602001908201803590602001908080601f01602080910402602001604051908101604052809392919081815260200183838082843782019150505050505091905050611436565b005b6107b76116a3565b6107bf6116a3565b600080600360008673ffffffffffffffffffffffffffffffffffffffff1673ffffffffffffffffffffffffffffffffffffffff16815260200190815260200160002060009054906101000a900461ffff1661ffff166040518059106108215750595b9080825280602002602001820160405250925060009150600090505b6004805490508110156109aa578473ffffffffffffffffffffffffffffffffffffffff166002600060048481548110151561087457fe5b906000526020600020906004020160000160009054906101000a90046fffffffffffffffffffffffffffffffff166fffffffffffffffffffffffffffffffff166fffffffffffffffffffffffffffffffff16815260200190815260200160002060009054906101000a900473ffffffffffffffffffffffffffffffffffffffff1673ffffffffffffffffffffffffffffffffffffffff16141561099d5760048181548110151561092057fe5b906000526020600020906004020160000160009054906101000a90046fffffffffffffffffffffffffffffffff16838361ffff1681518110151561096057fe5b906020019060200201906fffffffffffffffffffffffffffffffff1690816fffffffffffffffffffffffffffffffff168152505081806001019250505b808060010191505061083d565b829350505050919050565b33600260006004805490506fffffffffffffffffffffffffffffffff166fffffffffffffffffffffffffffffffff16815260200190815260200160002060006101000a81548173ffffffffffffffffffffffffffffffffffffffff021916908373ffffffffffffffffffffffffffffffffffffffff16021790555060048054806001018281610a4491906116b7565b916000526020600020906004020160006080604051908101604052806004805490506fffffffffffffffffffffffffffffffff16815260200186815260200185815260200142815250909190915060008201518160000160006101000a8154816fffffffffffffffffffffffffffffffff02191690836fffffffffffffffffffffffffffffffff1602179055506020820151816001019080519060200190610aed9291906116e9565b506040820151816002019080519060200190610b0a9291906116e9565b5060608201518160030155505050600360003373ffffffffffffffffffffffffffffffffffffffff1673ffffffffffffffffffffffffffffffffffffffff168152602001908152602001600020600081819054906101000a900461ffff168092919060010191906101000a81548161ffff021916908361ffff160217905550507f04b75e3dcfa4ce571d898f9fdcddeeda641bcf31c0c27e005dca5bac8a1bfec5823360405180806020018373ffffffffffffffffffffffffffffffffffffffff1673ffffffffffffffffffffffffffffffffffffffff168152602001828103825284818151815260200191508051906020019080838360005b83811015610c1f578082015181840152602081019050610c04565b50505050905090810190601f168015610c4c5780820380516001836020036101000a031916815260200191505b50935050505060405180910390a15050565b600481815481101515610c6d57fe5b90600052602060002090600402016000915090508060000160009054906101000a90046fffffffffffffffffffffffffffffffff1690806001019080600201908060030154905084565b610cbf611769565b600160048054905010151515610cd457600080fd5b60046000815481101515610ce457fe5b90600052602060002090600402016001018054600181600116156101000203166002900480601f016020809104026020016040519081016040528092919081815260200182805460018160011615610100020316600290048015610d895780601f10610d5e57610100808354040283529160200191610d89565b820191906000526020600020905b815481529060010190602001808311610d6c57829003601f168201915b5050505050905090565b610d9b611769565b610da3611769565b600080600090505b600480549050816fffffffffffffffffffffffffffffffff16101561102b57846fffffffffffffffffffffffffffffffff166004826fffffffffffffffffffffffffffffffff16815481101515610dfe57fe5b906000526020600020906004020160000160009054906101000a90046fffffffffffffffffffffffffffffffff166fffffffffffffffffffffffffffffffff16141561101e576004816fffffffffffffffffffffffffffffffff16815481101515610e6557fe5b90600052602060002090600402016001016004826fffffffffffffffffffffffffffffffff16815481101515610e9757fe5b90600052602060002090600402016002016004836fffffffffffffffffffffffffffffffff16815481101515610ec957fe5b906000526020600020906004020160030154828054600181600116156101000203166002900480601f016020809104026020016040519081016040528092919081815260200182805460018160011615610100020316600290048015610f705780601f10610f4557610100808354040283529160200191610f70565b820191906000526020600020905b815481529060010190602001808311610f5357829003601f168201915b50505050509250818054600181600116156101000203166002900480601f01602080910402602001604051908101604052809291908181526020018280546001816001161561010002031660029004801561100c5780601f10610fe15761010080835404028352916020019161100c565b820191906000526020600020905b815481529060010190602001808311610fef57829003601f168201915b5050505050915093509350935061102c565b8080600101915050610dab565b5b509193909250565b61103c611769565b6000803373ffffffffffffffffffffffffffffffffffffffff1673ffffffffffffffffffffffffffffffffffffffff1681526020019081526020016000208054600181600116156101000203166002900480601f01602080910402602001604051908101604052809291908181526020018280546001816001161561010002031660029004801561110e5780601f106110e35761010080835404028352916020019161110e565b820191906000526020600020905b8154815290600101906020018083116110f157829003601f168201915b5050505050905090565b6111206116a3565b6111286116a3565b6000600a6040518059106111395750595b90808252806020026020018201604052509150600090505b600a8110156111fe576000816004805490500311156111f1576004816004805490500381548110151561118057fe5b906000526020600020906004020160000160009054906101000a90046fffffffffffffffffffffffffffffffff1682828151811015156111bc57fe5b906020019060200201906fffffffffffffffffffffffffffffffff1690816fffffffffffffffffffffffffffffffff16815250505b8080600101915050611151565b819250505090565b61120e611769565b60008090505b600480549050816fffffffffffffffffffffffffffffffff16101561138c57826fffffffffffffffffffffffffffffffff166004826fffffffffffffffffffffffffffffffff1681548110151561126757fe5b906000526020600020906004020160000160009054906101000a90046fffffffffffffffffffffffffffffffff166fffffffffffffffffffffffffffffffff16141561137f576004816fffffffffffffffffffffffffffffffff168154811015156112ce57fe5b90600052602060002090600402016002018054600181600116156101000203166002900480601f0160208091040260200160405190810160405280929190818152602001828054600181600116156101000203166002900480156113735780601f1061134857610100808354040283529160200191611373565b820191906000526020600020905b81548152906001019060200180831161135657829003601f168201915b5050505050915061138d565b8080600101915050611214565b5b50919050565b61139b6116a3565b61142f6001836040518082805190602001908083835b6020831015156113d657805182526020820191506020810190506020830392506113b1565b6001836020036101000a038019825116818451168082178552505050505050905001915050908152602001604051809103902060009054906101000a900473ffffffffffffffffffffffffffffffffffffffff166107af565b9050919050565b600073ffffffffffffffffffffffffffffffffffffffff166001826040518082805190602001908083835b6020831015156114865780518252602082019150602081019050602083039250611461565b6001836020036101000a038019825116818451168082178552505050505050905001915050908152602001604051809103902060009054906101000a900473ffffffffffffffffffffffffffffffffffffffff1673ffffffffffffffffffffffffffffffffffffffff161415156115a35760006001826040518082805190602001908083835b602083101515611531578051825260208201915060208101905060208303925061150c565b6001836020036101000a038019825116818451168082178552505050505050905001915050908152602001604051809103902060006101000a81548173ffffffffffffffffffffffffffffffffffffffff021916908373ffffffffffffffffffffffffffffffffffffffff1602179055505b336001826040518082805190602001908083835b6020831015156115dc57805182526020820191506020810190506020830392506115b7565b6001836020036101000a038019825116818451168082178552505050505050905001915050908152602001604051809103902060006101000a81548173ffffffffffffffffffffffffffffffffffffffff021916908373ffffffffffffffffffffffffffffffffffffffff160217905550806000803373ffffffffffffffffffffffffffffffffffffffff1673ffffffffffffffffffffffffffffffffffffffff168152602001908152602001600020908051906020019061169f92919061177d565b5050565b602060405190810160405280600081525090565b8154818355818115116116e4576004028160040283600052602060002091820191016116e391906117fd565b5b505050565b828054600181600116156101000203166002900490600052602060002090601f016020900481019282601f1061172a57805160ff1916838001178555611758565b82800160010185558215611758579182015b8281111561175757825182559160200191906001019061173c565b5b5090506117659190611867565b5090565b602060405190810160405280600081525090565b828054600181600116156101000203166002900490600052602060002090601f016020900481019282601f106117be57805160ff19168380011785556117ec565b828001600101855582156117ec579182015b828111156117eb5782518255916020019190600101906117d0565b5b5090506117f99190611867565b5090565b61186491905b8082111561186057600080820160006101000a8154906fffffffffffffffffffffffffffffffff021916905560018201600061183f919061188c565b60028201600061184f919061188c565b600382016000905550600401611803565b5090565b90565b61188991905b8082111561188557600081600090555060010161186d565b5090565b90565b50805460018160011615610100020316600290046000825580601f106118b257506118d1565b601f0160209004906000526020600020908101906118d09190611867565b5b505600a165627a7a723058206245112753a7ebdfe1e0befb32dcbbca942fa8aac6ec89b95cf7732aa47ab8170029",
  "source": "pragma solidity ^0.4.18;\n\n// import \"../node_modules/zeppelin-solidity/contracts/ownership/Ownable.sol\";\n\n//contract Publication is Ownable{\ncontract Publication {\n\t// uint storedData;\n\t// string name;\n\n\n\t// function set(uint _x, string _name) public {\n\t// \twhile(true) {\n\t// \t\tstoredData = 1;\n\t// \t}\n\t//   storedData = _x;\n\t//   name = _name;\n\t// }\n\n\t// function getData() public view returns (uint) {\n\t//   return storedData;\n\t// }\n\n\t// function getName() public view returns (string) {\n\t//   return name;\n\t// }\n\n\n\tstruct Pub{\n\t\tuint128 pubNum;\t// publication id\n\t\tstring name;\t// name of publication\n\t\tstring data;\t// data / publication itself - hash\n\t\tuint date;\t\t// date of publication\n\t}\n\n\tevent PublicationAdded(string _name, address _addr);\n\n\tmapping (address => string) user;\t\t// address -> username\n\tmapping (string => address) userAddress;// username -> address\n\tmapping (uint128 => address) author;\t// pub num -> author\n\tmapping (address => uint16) numberOfPublications;\t// address -> number of pubs\n\t\n\tPub[] public publications; \t\t\t\t// list of publications\n\t\n\tfunction setUsername(string _name) public\n\t// onlyOwner\n\t{\n\t\tif (userAddress[_name] != address(0)) {\n\t\t\tuserAddress[_name] = address(0);\n\t\t}\n\t\tuserAddress[_name] = msg.sender;\n\t\tuser[msg.sender] = _name;\n\t}\n\n\tfunction getUsername() public view returns(string){\n\t\treturn user[msg.sender];\n\t}\n\n\tfunction addPublication(string _name, string _data) public {\n\t\tauthor[uint128(publications.length)] = msg.sender;\n\t\tpublications.push(Pub(uint128(publications.length),_name, _data, now));\n\t\tnumberOfPublications[msg.sender]++;\n\t\tPublicationAdded(_name, msg.sender);\n\t}\n\n\tfunction _getOwnPublications() private view \n\t// onlyOwner \n\treturns(uint128[]) {\n\t\tuint128[] memory pubNums = new uint128[](numberOfPublications[msg.sender]);\n\t\tuint16 c = 0;\n\t\tfor (uint i = 0; i<publications.length; i++) {\n\t\t\tif(author[publications[i].pubNum] == msg.sender) {\n\t\t\t\tpubNums[c] = publications[i].pubNum;\n\t\t\t\tc++;\n\t\t\t}\n\t\t}\n\t\treturn pubNums;\n\t}\n\n\tfunction getPublications(address _addr) public view returns(uint128[]){\n\t\tuint128[] memory pubNums = new uint128[](numberOfPublications[_addr]);\n\t\tuint16 c = 0;\n\t\tfor (uint i = 0; i<publications.length; i++) {\n\t\t\tif(author[publications[i].pubNum] == _addr) {\n\t\t\t\tpubNums[c] = publications[i].pubNum;\n\t\t\t\tc++;\n\t\t\t}\n\t\t}\n\t\treturn pubNums;\n\t}\n\n\tfunction getPublicationsByUsername(string _username) public view returns(uint128[]){\n\t\treturn getPublications(userAddress[_username]);\n\t}\n\n\tfunction getTopTen() public view returns(uint128[]){\n\t\tuint128[] memory pubNums = new uint128[](10);\n\t\tfor (uint i = 0; i<10; i++) {\n\t\t\tif(publications.length-i > 0){\n\t\t\t\tpubNums[i] = publications[publications.length-i].pubNum;\n\t\t\t}\n\t\t}\n\t\treturn pubNums;\n\t}\n\n\tfunction getPublication (uint128 _publicationNumber) public view returns(string,string,uint) {\n\t\tfor (uint128 i = 0; i<publications.length; i++) {\n\t\t\tif(publications[i].pubNum == _publicationNumber) {\n\t\t\t\treturn (publications[i].name, publications[i].data, publications[i].date);\n\t\t\t}\n\t\t}\n\t}\n\n\tfunction getData (uint128 _publicationNumber) public view returns(string) {\n\t\tfor (uint128 i = 0; i<publications.length; i++) {\n\t\t\tif(publications[i].pubNum == _publicationNumber) {\n\t\t\t\treturn publications[i].data;\n\t\t\t}\n\t\t}\n\t}\n\n\tfunction getPs () public view returns (string) {\n\t\trequire (publications.length >= 1);\n\t\treturn publications[0].name;\n\t}\n}\n\n// Publication.deployed().then(function(instance){return instance.addPublication(\"69420\",\"IIIIIID-DYLLU\");});\n// Publication.deployed().then(function(instance){return instance.getData.call();}).then(function(value){return value.toNumber()});\n// Publication.deployed().then(function(instance){return instance.getData.call();}).then(function(value){return value.toNumber()});\n\n// Publication.deployed().then(function(instance){return instance.getPublications.call();}).then(function(value){return value.toNumber()});\n\n// Publication.deployed().then(function(instance){return instance.getPublications(\"Dylon\");}).then(function(value){return value[0].toNumber()})\n\n// Publication.deployed().then(function(instance){return instance.addPublication(\"NameOfPub\",\"Data/Hash\");});\n// Publication.deployed().then(function(instance){return instance.getPublications(\"Dylon\");}).then(function(value){return value[2].toNumber()})\n\n\n// name, string (article) -> genHash() -> addPublication(name, hash)\n// pubID -> getData() -> display [no need to show hash]\n// references",
  "sourcePath": "/home/kaspy/Desktop/PubliChain/contracts/Publication.sol",
  "compiler": {
    "name": "solc",
    "version": "0.4.19+commit.c4cbbb05.Emscripten.clang"
  },
  "schemaVersion": "1.0.1",
  "updatedAt": "2018-02-25T16:09:47.471Z"
}