{
  "contractName": "Publication",
  "abi": [
    {
      "constant": true,
      "inputs": [
        {
          "name": "",
          "type": "uint256"
        }
      ],
      "name": "publications",
      "outputs": [
        {
          "name": "pubNum",
          "type": "uint128"
        },
        {
          "name": "name",
          "type": "string"
        },
        {
          "name": "data",
          "type": "string"
        },
        {
          "name": "date",
          "type": "uint256"
        }
      ],
      "payable": false,
      "stateMutability": "view",
      "type": "function"
    },
    {
      "constant": true,
      "inputs": [],
      "name": "owner",
      "outputs": [
        {
          "name": "",
          "type": "address"
        }
      ],
      "payable": false,
      "stateMutability": "view",
      "type": "function"
    },
    {
      "constant": false,
      "inputs": [
        {
          "name": "newOwner",
          "type": "address"
        }
      ],
      "name": "transferOwnership",
      "outputs": [],
      "payable": false,
      "stateMutability": "nonpayable",
      "type": "function"
    },
    {
      "anonymous": false,
      "inputs": [
        {
          "indexed": false,
          "name": "_name",
          "type": "string"
        },
        {
          "indexed": false,
          "name": "_addr",
          "type": "address"
        }
      ],
      "name": "PublicationAdded",
      "type": "event"
    },
    {
      "anonymous": false,
      "inputs": [
        {
          "indexed": true,
          "name": "previousOwner",
          "type": "address"
        },
        {
          "indexed": true,
          "name": "newOwner",
          "type": "address"
        }
      ],
      "name": "OwnershipTransferred",
      "type": "event"
    },
    {
      "constant": true,
      "inputs": [
        {
          "name": "_username",
          "type": "string"
        }
      ],
      "name": "getPublications",
      "outputs": [
        {
          "components": [
            {
              "name": "pubNum",
              "type": "uint128"
            },
            {
              "name": "name",
              "type": "string"
            },
            {
              "name": "data",
              "type": "string"
            },
            {
              "name": "date",
              "type": "uint256"
            }
          ],
          "name": "",
          "type": "tuple[]"
        }
      ],
      "payable": false,
      "stateMutability": "view",
      "type": "function"
    },
    {
      "constant": true,
      "inputs": [
        {
          "name": "_publicationNumber",
          "type": "uint128"
        }
      ],
      "name": "getPublication",
      "outputs": [
        {
          "components": [
            {
              "name": "pubNum",
              "type": "uint128"
            },
            {
              "name": "name",
              "type": "string"
            },
            {
              "name": "data",
              "type": "string"
            },
            {
              "name": "date",
              "type": "uint256"
            }
          ],
          "name": "",
          "type": "tuple"
        }
      ],
      "payable": false,
      "stateMutability": "view",
      "type": "function"
    }
  ],
  "bytecode": "0x6060604052336000806101000a81548173ffffffffffffffffffffffffffffffffffffffff021916908373ffffffffffffffffffffffffffffffffffffffff160217905550610b8a806100536000396000f30060606040526004361061006d576000357c0100000000000000000000000000000000000000000000000000000000900463ffffffff1680631fd5bbab146100725780633167fd3e146101e65780638da5cb5b1461022f578063aafacd7314610284578063f2fde38b14610331575b600080fd5b341561007d57600080fd5b610093600480803590602001909190505061036a565b60405180856fffffffffffffffffffffffffffffffff166fffffffffffffffffffffffffffffffff16815260200180602001806020018481526020018381038352868181546001816001161561010002031660029004815260200191508054600181600116156101000203166002900480156101505780601f1061012557610100808354040283529160200191610150565b820191906000526020600020905b81548152906001019060200180831161013357829003601f168201915b50508381038252858181546001816001161561010002031660029004815260200191508054600181600116156101000203166002900480156101d35780601f106101a8576101008083540402835291602001916101d3565b820191906000526020600020905b8154815290600101906020018083116101b657829003601f168201915b5050965050505050505060405180910390f35b34156101f157600080fd5b61021960048080356fffffffffffffffffffffffffffffffff169060200190919050506103c3565b6040518082815260200191505060405180910390f35b341561023a57600080fd5b610242610658565b604051808273ffffffffffffffffffffffffffffffffffffffff1673ffffffffffffffffffffffffffffffffffffffff16815260200191505060405180910390f35b341561028f57600080fd5b6102df600480803590602001908201803590602001908080601f0160208091040260200160405190810160405280939291908181526020018383808284378201915050505050509190505061067d565b60405180806020018281038252838181518152602001915080516000925b8184101561032057828490602001906020020151815260200192600101926102fd565b925050509250505060405180910390f35b341561033c57600080fd5b610368600480803573ffffffffffffffffffffffffffffffffffffffff16906020019091905050610986565b005b60068181548110151561037957fe5b90600052602060002090600402016000915090508060000160009054906101000a90046fffffffffffffffffffffffffffffffff1690806001019080600201908060030154905084565b6103cb610adb565b60008090505b600680549050816fffffffffffffffffffffffffffffffff16101561065157826fffffffffffffffffffffffffffffffff166006826fffffffffffffffffffffffffffffffff1681548110151561042457fe5b906000526020600020906004020160000160009054906101000a90046fffffffffffffffffffffffffffffffff166fffffffffffffffffffffffffffffffff161415610644576006816fffffffffffffffffffffffffffffffff1681548110151561048b57fe5b9060005260206000209060040201608060405190810160405290816000820160009054906101000a90046fffffffffffffffffffffffffffffffff166fffffffffffffffffffffffffffffffff166fffffffffffffffffffffffffffffffff168152602001600182018054600181600116156101000203166002900480601f0160208091040260200160405190810160405280929190818152602001828054600181600116156101000203166002900480156105885780601f1061055d57610100808354040283529160200191610588565b820191906000526020600020905b81548152906001019060200180831161056b57829003601f168201915b50505050508152602001600282018054600181600116156101000203166002900480601f01602080910402602001604051908101604052809291908181526020018280546001816001161561010002031660029004801561062a5780601f106105ff5761010080835404028352916020019161062a565b820191906000526020600020905b81548152906001019060200180831161060d57829003601f168201915b505050505081526020016003820154815250509150610652565b80806001019150506103d1565b5b50919050565b6000809054906101000a900473ffffffffffffffffffffffffffffffffffffffff1681565b610685610b22565b61068d610b36565b600080600560003373ffffffffffffffffffffffffffffffffffffffff1673ffffffffffffffffffffffffffffffffffffffff16815260200190815260200160002060009054906101000a900461ffff1661ffff166040518059106106ef5750595b90808252806020026020018201604052801561072557816020015b610712610b4a565b81526020019060019003908161070a5790505b50925060009150600090505b60068054905081101561097e576003856040518082805190602001908083835b6020831015156107765780518252602082019150602081019050602083039250610751565b6001836020036101000a038019825116818451168082178552505050505050905001915050908152602001604051809103902060009054906101000a900473ffffffffffffffffffffffffffffffffffffffff1673ffffffffffffffffffffffffffffffffffffffff16600460006006848154811015156107f357fe5b906000526020600020906004020160000160009054906101000a90046fffffffffffffffffffffffffffffffff166fffffffffffffffffffffffffffffffff166fffffffffffffffffffffffffffffffff16815260200190815260200160002060009054906101000a900473ffffffffffffffffffffffffffffffffffffffff1673ffffffffffffffffffffffffffffffffffffffff1614156109715760068181548110151561089f57fe5b90600052602060002090600402016001018054600181600116156101000203166002900480601f0160208091040260200160405190810160405280929190818152602001828054600181600116156101000203166002900480156109445780601f1061091957610100808354040283529160200191610944565b820191906000526020600020905b81548152906001019060200180831161092757829003601f168201915b5050505050838361ffff1681518110151561095b57fe5b9060200190602002018190525081806001019250505b8080600101915050610731565b505050919050565b6000809054906101000a900473ffffffffffffffffffffffffffffffffffffffff1673ffffffffffffffffffffffffffffffffffffffff163373ffffffffffffffffffffffffffffffffffffffff161415156109e157600080fd5b600073ffffffffffffffffffffffffffffffffffffffff168173ffffffffffffffffffffffffffffffffffffffff1614151515610a1d57600080fd5b8073ffffffffffffffffffffffffffffffffffffffff166000809054906101000a900473ffffffffffffffffffffffffffffffffffffffff1673ffffffffffffffffffffffffffffffffffffffff167f8be0079c531659141344cd1fd0a4f28419497f9722a3daafe3b4186f6b6457e060405160405180910390a3806000806101000a81548173ffffffffffffffffffffffffffffffffffffffff021916908373ffffffffffffffffffffffffffffffffffffffff16021790555050565b60806040519081016040528060006fffffffffffffffffffffffffffffffff168152602001610b08610b4a565b8152602001610b15610b4a565b8152602001600081525090565b602060405190810160405280600081525090565b602060405190810160405280600081525090565b6020604051908101604052806000815250905600a165627a7a72305820ac7552751056bd4be479156a96ddae0392c56330a457ef01275bb3cac202a56b0029",
  "source": "pragma solidity ^0.4.18;\n\nimport \"../node_modules/zeppelin-solidity/contracts/ownership/Ownable.sol\";\n\ncontract Publication is Ownable{\n\t// uint storedData;\n\t// string name;\n\n\n\t// function set(uint _x, string _name) public {\n\t// \twhile(true) {\n\t// \t\tstoredData = 1;\n\t// \t}\n\t//   storedData = _x;\n\t//   name = _name;\n\t// }\n\n\t// function getData() public view returns (uint) {\n\t//   return storedData;\n\t// }\n\n\t// function getName() public view returns (string) {\n\t//   return name;\n\t// }\n\n\tstring username;\t// username\n\n\tstruct Pub{\n\t\tuint128 pubNum;\t// publication id\n\t\tstring name;\t// name of publication\n\t\tstring data;\t// data / publication itself\n\t\tuint date;\t\t// date of publication\n\t}\n\n\tevent PublicationAdded(string _name, address _addr);\n\n\tmapping (address => string) user;\t\t// address -> username\n\tmapping (string => address) userAddress;// username ->\t\n\tmapping (uint128 => address) author;\t// pub num -> author\n\tmapping (address => uint16) numberOfPublications;\t// address -> number of pubs\n\t\n\tPub[] public publications; \t\t\t\t// list of publications\n\t\n\tfunction _setUsername(string _name) private onlyOwner{\n\t\tif (userAddress[_name] != address(0)) {\n\t\t\tuserAddress[_name] = address(0);\n\t\t}\n\t\tusername = _name;\n\t\tuserAddress[_name] = msg.sender;\n\t\tuser[msg.sender] = _name;\n\t}\n\n\tfunction _addPublication(string _name, string _data) private {\n\t\tauthor[uint128(publications.length)] = msg.sender;\n\t\tpublications.push(Pub(uint128(publications.length),_name, _data, now));\n\t\tnumberOfPublications[msg.sender]++;\n\t\tPublicationAdded(_name, msg.sender);\n\t}\n\n\tfunction _getOwnPublications() private view onlyOwner returns(string[]) {\n\t\tstring[] memory pubNames = new string[](numberOfPublications[msg.sender]);\n\t\tuint16 c = 0;\n\t\tfor (uint i = 0; i<publications.length; i++) {\n\t\t\tif(author[publications[i].pubNum] == msg.sender) {\n\t\t\t\tpubNames[c] = publications[i].name;\n\t\t\t\tc++;\n\t\t\t}\n\t\t}\n\t}\n\n\tfunction getPublications(string _username) public view returns(Pub[]){\n\t\tstring[] memory pubNames = new string[](numberOfPublications[msg.sender]);\n\t\tuint16 c = 0;\n\t\tfor (uint i = 0; i<publications.length; i++) {\n\t\t\tif(author[publications[i].pubNum] == userAddress[_username]) {\n\t\t\t\tpubNames[c] = publications[i].name;\n\t\t\t\tc++;\n\t\t\t}\n\t\t}\n\t}\n\n\tfunction getPublication (uint128 _publicationNumber) public view returns(Pub) {\n\t\tfor (uint128 i = 0; i<publications.length; i++) {\n\t\t\tif(publications[i].pubNum == _publicationNumber) {\n\t\t\t\treturn publications[i];\n\t\t\t}\n\t\t}\n\t}\n\n}\n\n// Publication.deployed().then(function(instance){return instance.set(69420,\"IIIIIID-DYLLU\");});\n// Publication.deployed().then(function(instance){return instance.getData.call();}).then(function(value){return value.toNumber()});\n// Publication.deployed().then(function(instance){return instance.getData.call();}).then(function(value){return value.toNumber()});\n",
  "sourcePath": "/home/kaspy/Desktop/PubliChain/contracts/Publication.sol",
  "compiler": {
    "name": "solc",
    "version": "0.4.19+commit.c4cbbb05.Emscripten.clang"
  },
  "schemaVersion": "1.0.1",
  "updatedAt": "2018-02-24T19:06:26.710Z"
}