{
  "contractName": "Publication",
  "abi": [
    {
      "constant": true,
      "inputs": [
        {
          "name": "",
          "type": "uint256"
        }
      ],
      "name": "publications",
      "outputs": [
        {
          "name": "name",
          "type": "string"
        },
        {
          "name": "data",
          "type": "string"
        },
        {
          "name": "date",
          "type": "uint256"
        }
      ],
      "payable": false,
      "stateMutability": "view",
      "type": "function"
    }
  ],
  "bytecode": "0x6060604052341561000f57600080fd5b6101f28061001e6000396000f300606060405260043610610041576000357c0100000000000000000000000000000000000000000000000000000000900463ffffffff1680631fd5bbab14610046575b600080fd5b341561005157600080fd5b610067600480803590602001909190505061018f565b6040518080602001806020018481526020018381038352868181546001816001161561010002031660029004815260200191508054600181600116156101000203166002900480156100fa5780601f106100cf576101008083540402835291602001916100fa565b820191906000526020600020905b8154815290600101906020018083116100dd57829003601f168201915b505083810382528581815460018160011615610100020316600290048152602001915080546001816001161561010002031660029004801561017d5780601f106101525761010080835404028352916020019161017d565b820191906000526020600020905b81548152906001019060200180831161016057829003601f168201915b50509550505050505060405180910390f35b60028181548110151561019e57fe5b90600052602060002090600302016000915090508060000190806001019080600201549050835600a165627a7a7230582078e03019df0865fa13f916f03e53b940e5627316c3cfb97a6657835a64d8a1040029",
  "source": "pragma solidity ^0.4.18;\n\ncontract Publication {\n\t// uint storedData;\n\t// string name;\n\n\n\t// function set(uint _x, string _name) public {\n\t// \twhile(true) {\n\t// \t\tstoredData = 1;\n\t// \t}\n\t//   storedData = _x;\n\t//   name = _name;\n\t// }\n\n\t// function getData() public view returns (uint) {\n\t//   return storedData;\n\t// }\n\n\t// function getName() public view returns (string) {\n\t//   return name;\n\t// }\n\n\tstruct Pub{\n\t\tstring name;\n\t\tstring data;\n\t\tuint date;\n\t}\n\n\tmapping (address => string) users;\n\tmapping (string => address) authors;\n\tPub[] public publications; \n\tstring name;\n\n\tfunction _setUsername(string _name) private{\n\t\tusers[msg.sender] = _name;\n\t}\n\n\tfunction _addPublication(string _name, string _data) private{\n\t\tauthors[_name] = msg.sender;\n\t\tpublications.push(Pub(_name, _data, now));\n\t}\n\n\n\n}\n\n// Publication.deployed().then(function(instance){return instance.set(69420,\"IIIIIID-DYLLU\");});\n// Publication.deployed().then(function(instance){return instance.getData.call();}).then(function(value){return value.toNumber()});\n// Publication.deployed().then(function(instance){return instance.getData.call();}).then(function(value){return value.toNumber()});\n",
  "sourcePath": "/home/kaspy/Desktop/PubliChain/contracts/Publication.sol",
  "compiler": {
    "name": "solc",
    "version": "0.4.19+commit.c4cbbb05.Emscripten.clang"
  },
  "schemaVersion": "1.0.1",
  "updatedAt": "2018-02-24T17:07:58.444Z"
}